{
  "contractName": "Migrations",
  "abi": [
    {
      "inputs": [],
      "payable": false,
      "stateMutability": "nonpayable",
      "type": "constructor"
    },
    {
      "constant": true,
      "inputs": [],
      "name": "last_completed_migration",
      "outputs": [
        {
          "internalType": "uint256",
          "name": "",
          "type": "uint256"
        }
      ],
      "payable": false,
      "stateMutability": "view",
      "type": "function"
    },
    {
      "constant": true,
      "inputs": [],
      "name": "owner",
      "outputs": [
        {
          "internalType": "address",
          "name": "",
          "type": "address"
        }
      ],
      "payable": false,
      "stateMutability": "view",
      "type": "function"
    },
    {
      "constant": false,
      "inputs": [
        {
          "internalType": "uint256",
          "name": "completed",
          "type": "uint256"
        }
      ],
      "name": "setCompleted",
      "outputs": [],
      "payable": false,
      "stateMutability": "nonpayable",
      "type": "function"
    },
    {
      "constant": false,
      "inputs": [
        {
          "internalType": "address",
          "name": "new_address",
          "type": "address"
        }
      ],
      "name": "upgrate",
      "outputs": [],
      "payable": false,
      "stateMutability": "nonpayable",
      "type": "function"
    }
  ],
  "bytecode": "0x608060405234801561001057600080fd5b50336000806101000a81548173ffffffffffffffffffffffffffffffffffffffff021916908373ffffffffffffffffffffffffffffffffffffffff1602179055506102b7806100606000396000f3fe608060405234801561001057600080fd5b506004361061004c5760003560e01c8063445df0ac146100515780638da5cb5b1461006f57806392a06d40146100b9578063fdacd576146100fd575b600080fd5b61005961012b565b6040518082815260200191505060405180910390f35b610077610131565b604051808273ffffffffffffffffffffffffffffffffffffffff1673ffffffffffffffffffffffffffffffffffffffff16815260200191505060405180910390f35b6100fb600480360360208110156100cf57600080fd5b81019080803573ffffffffffffffffffffffffffffffffffffffff169060200190929190505050610156565b005b6101296004803603602081101561011357600080fd5b8101908080359060200190929190505050610222565b005b60015481565b6000809054906101000a900473ffffffffffffffffffffffffffffffffffffffff1681565b6000809054906101000a900473ffffffffffffffffffffffffffffffffffffffff1673ffffffffffffffffffffffffffffffffffffffff163373ffffffffffffffffffffffffffffffffffffffff16141561021f5760008190508073ffffffffffffffffffffffffffffffffffffffff1663fdacd5766001546040518263ffffffff1660e01b815260040180828152602001915050600060405180830381600087803b15801561020557600080fd5b505af1158015610219573d6000803e3d6000fd5b50505050505b50565b6000809054906101000a900473ffffffffffffffffffffffffffffffffffffffff1673ffffffffffffffffffffffffffffffffffffffff163373ffffffffffffffffffffffffffffffffffffffff16141561027f57806001819055505b5056fea265627a7a72315820a12a34a0d2688905460b9107bf7f3088a8d527bac65f6ba3c7c015d6dd44552164736f6c63430005100032",
  "source": "pragma solidity ^0.5.0;\r\n\r\ncontract Migrations{\r\n\taddress public owner;\r\n\tuint public last_completed_migration;\r\n\r\n\tconstructor() public {\r\n\t\towner = msg.sender;\r\n\t}\r\n\r\n\tmodifier restricted() {\r\n\t\tif(msg.sender == owner) _;\r\n\t}\r\n\r\n\tfunction setCompleted(uint completed) public restricted {\r\n\t\tlast_completed_migration = completed;\r\n\t}\r\n\r\n\tfunction upgrate(address new_address) public restricted {\r\n\t\tMigrations upgraded = Migrations(new_address);\r\n\t\tupgraded.setCompleted(last_completed_migration);\r\n\t}\r\n}",
  "sourcePath": "C:\\Users\\snmed\\proyectos\\defi-staking\\src\\contracts\\Migrations.sol",
  "compiler": {
    "name": "solc",
    "version": "0.5.16+commit.9c3226ce.Emscripten.clang"
  },
  "schemaVersion": "3.4.3",
  "updatedAt": "2021-10-13T15:05:58.882Z",
  "devdoc": {
    "methods": {}
  },
  "userdoc": {
    "methods": {}
  }
}