{
  "contractName": "Tether",
  "abi": [
    {
      "constant": true,
      "inputs": [],
      "name": "name",
      "outputs": [
        {
          "internalType": "string",
          "name": "",
          "type": "string"
        }
      ],
      "payable": false,
      "stateMutability": "view",
      "type": "function"
    },
    {
      "constant": true,
      "inputs": [],
      "name": "symbol",
      "outputs": [
        {
          "internalType": "string",
          "name": "",
          "type": "string"
        }
      ],
      "payable": false,
      "stateMutability": "view",
      "type": "function"
    },
    {
      "constant": true,
      "inputs": [],
      "name": "totalSupply",
      "outputs": [
        {
          "internalType": "uint256",
          "name": "",
          "type": "uint256"
        }
      ],
      "payable": false,
      "stateMutability": "view",
      "type": "function"
    }
  ],
  "bytecode": "0x60806040526040518060400160405280600681526020017f54657468657200000000000000000000000000000000000000000000000000008152506000908051906020019061004f9291906100d8565b506040518060400160405280600481526020017f55534454000000000000000000000000000000000000000000000000000000008152506001908051906020019061009b9291906100d8565b5069d3c21bcecceda10000006002556012600360006101000a81548160ff021916908360ff1602179055503480156100d257600080fd5b5061017d565b828054600181600116156101000203166002900490600052602060002090601f016020900481019282601f1061011957805160ff1916838001178555610147565b82800160010185558215610147579182015b8281111561014657825182559160200191906001019061012b565b5b5090506101549190610158565b5090565b61017a91905b8082111561017657600081600090555060010161015e565b5090565b90565b6102e18061018c6000396000f3fe608060405234801561001057600080fd5b50600436106100415760003560e01c806306fdde031461004657806318160ddd146100c957806395d89b41146100e7575b600080fd5b61004e61016a565b6040518080602001828103825283818151815260200191508051906020019080838360005b8381101561008e578082015181840152602081019050610073565b50505050905090810190601f1680156100bb5780820380516001836020036101000a031916815260200191505b509250505060405180910390f35b6100d1610208565b6040518082815260200191505060405180910390f35b6100ef61020e565b6040518080602001828103825283818151815260200191508051906020019080838360005b8381101561012f578082015181840152602081019050610114565b50505050905090810190601f16801561015c5780820380516001836020036101000a031916815260200191505b509250505060405180910390f35b60008054600181600116156101000203166002900480601f0160208091040260200160405190810160405280929190818152602001828054600181600116156101000203166002900480156102005780601f106101d557610100808354040283529160200191610200565b820191906000526020600020905b8154815290600101906020018083116101e357829003601f168201915b505050505081565b60025481565b60018054600181600116156101000203166002900480601f0160208091040260200160405190810160405280929190818152602001828054600181600116156101000203166002900480156102a45780601f10610279576101008083540402835291602001916102a4565b820191906000526020600020905b81548152906001019060200180831161028757829003601f168201915b50505050508156fea265627a7a723158205717c363f097469b80caf00009afd08a57a561f8d35e2d25f8d4b21a65f1fe3764736f6c63430005100032",
  "source": "pragma solidity ^0.5.0;\r\n\r\ncontract Tether{\r\n\tstring public name = 'Tether';\r\n\tstring public symbol = 'USDT';\r\n\tuint256 public totalSupply = 1000000000000000000000000; // 1 millon tokens\r\n\tuint8 decimals = 18;\r\n\r\n}",
  "sourcePath": "C:\\Users\\snmed\\proyectos\\defi-staking\\src\\contracts\\Tether.sol",
  "compiler": {
    "name": "solc",
    "version": "0.5.16+commit.9c3226ce.Emscripten.clang"
  },
  "schemaVersion": "3.4.3",
  "updatedAt": "2021-09-19T18:19:06.034Z",
  "devdoc": {
    "methods": {}
  },
  "userdoc": {
    "methods": {}
  }
}